:020000041004E6
:1000000000600020B5210410CB280410D52804106E
:10001000AA5555AA45554C420000000000000000BA
:10002000000000000000000000000000DB280410B9
:100030000000000000000000A1200410E5280410CA
:10004000F3280410AB2004100000000000000000A2
:10005000FD280410B52004100B290410F120041011
:100060000000000000000000000000000000000090
:1000700000000000FB200410052104100F210410D3
:1000800000000000BF200410C9200410D320041079
:10009000DD200410E720041023210410192104108E
:1000A0000000000000000000000000000000000050
:1000B0000000000000000000000000000000000040
:1000C000EFF31482EFF309811C4880F31488BFF327
:1000D0006F8FF0B543464C4655465E466746F8B4CA
:1000E000174CEFF30883236006B4164C2068164CB7
:1000F0002060164C2068164C2060164C2068164C68
:100100002060164C276800202060BFF34F8F30BF5F
:1001100027600B4C246884F3088882B003BCF8BCC9
:100120009846A146AA46B346BC46F0BC04BC80F340
:10013000098881F31488BFF36F8F10470000000017
:100140000800002004ED00E0A023002024ED00E0E2
:100150009C23002000E200E0A423002008002040AF
:100160000023C25C0133002AFBD1581E70470000F7
:1001700003B47146490840004900095E49008E44B5
:1001800003BC7047002243088B4274D303098B429F
:100190005FD3030A8B4244D3030B8B4228D3030C57
:1001A0008B420DD3FF22090212BA030C8B4202D3F9
:1001B0001212090265D0030B8B4219D300E0090A21
:1001C000C30B8B4201D3CB03C01A5241830B8B422A
:1001D00001D38B03C01A5241430B8B4201D34B0313
:1001E000C01A5241030B8B4201D30B03C01A524178
:1001F000C30A8B4201D3CB02C01A5241830A8B42FD
:1002000001D38B02C01A5241430A8B4201D34B02E5
:10021000C01A5241030A8B4201D30B02C01A524149
:10022000CDD2C3098B4201D3CB01C01A52418309FD
:100230008B4201D38B01C01A524143098B4201D337
:100240004B01C01A524103098B4201D30B01C01A62
:100250005241C3088B4201D3CB00C01A52418308DC
:100260008B4201D38B00C01A524143088B4201D309
:100270004B00C01A5241411A00D201465241104669
:100280007047FFE701B5002000F006F802BDC04648
:100290000029F7D076E770477047C0464378027868
:1002A0001B021A438378C0781B04134300061843CB
:1002B0007047C046030A4B7003021B0E8B70030E7F
:1002C0000870CB707047C04603005A78007812025D
:1002D00002439878197900040243D8780006104345
:1002E0005A7912020A43997909040A43D97909060D
:1002F00011437047030A5370030C9370030ED370BD
:100300000B0A53710B021B0E93710B0E10701171BF
:10031000D371704790B583B000AF02003960FB1D08
:100320001A70FB1D1B787F2B32D92F4AFB1D1B78BF
:1003300019000F230B40083B9B0806339B00D31882
:1003400004331B68FA1D1278110003220A40D20000
:10035000FF2191400A00D2431A4011003B689B01E3
:10036000FF221A40FB1D1B78180003230340DB000B
:100370009A401D48FB1D1B781C000F232340083B9F
:100380009B080A4306339B00C31804331A6027E016
:10039000164AFB1D1B785BB29B08C0339B009B5821
:1003A000FA1D1278110003220A40D200FF21914069
:1003B0000A00D2431A4011003B689B01FF221A40F9
:1003C000FB1D1B78180003230340DB009A400748FD
:1003D000FB1D1B785BB29B080A43C0339B001A507D
:1003E000C046BD4603B090BD00ED00E000E100E076
:1003F00080B582B000AF78607A6880235B049A424F
:1004000001D3012312E07B681B021A0A094B013A4F
:100410005A6001235B4203211800FFF77BFF054B65
:1004200000229A60034B07221A6000231800BD4681
:1004300002B080BD10E000E080B500AF034B1B6848
:100440005A1C024B1A60C046BD4680BD10030020F6
:1004500080B500AF034B1800FFF7CAFFC046BD468A
:1004600080BDC046FF7C000080B500AF024B1B681A
:100470001800BD4680BDC0461003002080B582B084
:1004800000AF786039607B683A685A60FFF7ECFF2C
:1004900002007B681A60C046BD4602B080BD80B5D0
:1004A00084B000AF7860FFF7DFFF02007B681B6855
:1004B000D31A0133FB607B685A68FB689A429B4100
:1004C0005B42DBB21800BD4604B080BD80B584B08D
:1004D00000AF78601F4BFB601F4BBB601F4BDB699D
:1004E0001B061B0FDBB21A007B685A701B4BDB69C3
:1004F0001B071B0FDBB21A007B689A70FB681A6837
:100500007B685A607B685B68154A93420CD1BB6874
:100510001B68144A934203D17B6804221A7006E0D8
:100520007B6802221A7002E07B6801221A707B68E5
:100530005B78002B02D17B6801225A700A4B9B8AA0
:100540009BB201339B001A007B689A60C046BD468F
:1005500004B080BD280090401C00001000009040B6
:1005600041A0000244A000F20000104090B589B004
:1005700000AFF860B9607A6014243B191800FFF7E7
:10058000A5FF21007B181A78FB681A707B185A782F
:10059000BB681A707B189A787B681A70C046BD4693
:1005A00009B090BD80B584B000AFF860B9607A60E2
:1005B0007A68B968FB68180003F048FF0300180068
:1005C000BD4604B080BD80B584B000AFF860B960AE
:1005D0007A607A68B968FB68180003F053FF03007B
:1005E0001800BD4604B080BD80B584B000AFF8608F
:1005F000B9607A607A68B968FB68180003F018FF80
:1006000003001800BD4604B080BD000080B584B072
:1006100000AF0200BB1D1A800E4B1B680E4A9342AE
:1006200013D1BB1D1B88DB029A100E217B181A8088
:100630000A4B3F221A81094B7A1812889A61074B9C
:1006400011221A8000F03AF800E0C046BD4604B01E
:1006500080BDC04614000020CCBCECFC0000104063
:1006600080B582B000AF78607B681B681800BD461B
:1006700002B080BD80B582B000AF786039600C4BAD
:100680001B680C4A93420FD10B4B3F221A810A4B35
:100690007A6892089A61084B3A681A64064B3322CA
:1006A0001A8000F00BF800E0C046BD4602B080BDE5
:1006B00014000020CCBCECFC0000104080B500AF62
:1006C000C046054B1B8ADB07DB0FDBB2012BF8D1E1
:1006D000C046C046BD4680BD0000104080B582B017
:1006E00000AF0200FB1D1A70074B1B8A9BB21A0059
:1006F000FB1D1B78134001D0012300E000231800EC
:10070000BD4602B080BDC0460000104090B585B027
:1007100000AF78600F217B1800221A707B187A686E
:1007200012791A707B681B79002B0AD18023DB05B4
:100730005A687B681B68D9438023DB050A405A60EE
:1007400010E07B681B79062B0CD10F23FB180022CD
:100750001A708023DB0559687B681A688023DB05E3
:100760000A435A600E23FB1800221A70A2E07B682D
:100770001A680E203B181B78DA401300DAB20D24F9
:100780003B1901210A401A703B191B78002B00D13C
:100790008AE03B181B78072B18D88023DB05DB6A1F
:1007A0003A18127892000F2191400A00D2431A4061
:1007B0000F23FB1819783B181B789B0099400B00FE
:1007C00019008023DB050A43DA626DE00E203B1836
:1007D0001B78072B1ED93B181B780F2B1AD88023A8
:1007E000DB051B6B3A181278083A92000F219140F2
:1007F0000A00D2431A400F23FB1819783B181B78C4
:10080000083B9B0099400B0019008023DB050A433D
:100810001A6349E00E203B181B780F2B1ED93B189A
:100820001B78172B1AD88023DB055B6B3A181278DC
:10083000103A92000F2191400A00D2431A400F2330
:10084000FB1819783B181B78103B9B0099400B0054
:1008500019008023DB050A435A6325E00E203B186C
:100860001B78172B20D98023DB051B8F9BB21BB273
:100870003A181278183A92000F2191400A0012B2E9
:10088000D24312B213401AB20F23FB1819783B1847
:100890001B78183B9B0099400B001BB213431AB204
:1008A0008023DB0592B21A870E217B181A787B18F9
:1008B00001321A700E23FB181B78192B00D856E74B
:1008C0007B685B79012B09D18023DB05D9687B68C4
:1008D0001A688023DB050A43DA6009E08023DB0520
:1008E000DA687B681B68D9438023DB050A40DA603D
:1008F0007B689B79012B09D18023DB0599687B6894
:100900001A688023DB050A439A6009E08023DB052F
:100910009A687B681B68D9438023DB050A409A608C
:10092000C046BD4605B090BD80B582B000AF7860CE
:100930000A00FB1C1A70FB1C1B78012B04D18023BE
:10094000DB057A68DA6303E08023DB057A681A64E2
:10095000C046BD4602B080BD80B500AFC0231B06B7
:100960001A6880210A431A60C0231B061A68802176
:100970008A431A60C046BD4680BD80B500AFC02323
:100980001B061A6801210A431A60C0231B061A6855
:1009900001218A431A60C046BD4680BD80B500AFC4
:1009A000C0231B061B689B07DB0FDBB21800BD468C
:1009B00080BD000080B582B000AF094B1B78002BD2
:1009C00001D0012308E0074B1B687B607B68002B8C
:1009D00001D1002300E001231800BD4602B080BD14
:1009E00014030020000400C080B586B000AFF8609A
:1009F000B960FB1D1A70FB1D1B787B6100233B61F6
:100A00007B69013B7B61FA687B69D3181B7819000D
:100A1000BA687B69D3181B78CB1A3B613B69002B02
:100A200003D17B69002BEBD100E0C0463B69180085
:100A3000BD4606B080BD0000B0B594B000AF020066
:100A40003960FB1D1A702823FB184B4A13CA13C3C5
:100A500013CA13C303CA03C308217B18474A31CA08
:100A600031C331CA31C311CA11C3FB1D1B78012B1D
:100A70001AD179183B6820221800FFF7B5FF031E32
:100A800008DB3F4B1B7804221343DAB23C4B1A704D
:100A900001236DE03A4B1B7804229343DAB2384BC2
:100AA0001A70384BFB6441E0FB1D1B78022B1BD1F5
:100AB0002823F9183B6820221800FFF795FF031E32
:100AC00008DB2F4B1B7801221343DAB22C4B1A7030
:100AD00001234DE02A4B1B7801229343DAB2284BC5
:100AE0001A70294BFB6421E0FB1D1B78032B1BD1E3
:100AF0002823F9183B6820221800FFF775FF031E12
:100B000008DB1F4B1B7802221343DAB21C4B1A700E
:100B100001232DE01A4B1B7802229343DAB2184BC3
:100B20001A701A4BFB6401E0012321E04B23FB18F0
:100B300000221A7012E04B203B181B789B003A6889
:100B4000D3183A18127892001100FA6C8A181B68B0
:100B500013603B181A783B1801321A704B23FB18AC
:100B60001B78072BE7D9FB6C203300221A60002387
:100B70001800BD4614B0B0BD54A7051074A70510E9
:100B8000140300206C0400C0900400C0B40400C032
:100B900080B584B000AF02003960FB1D1A70FB1DE8
:100BA0001B78012B02D1194BFB600FE0FB1D1B785A
:100BB000022B02D1164BFB6008E0FB1D1B78032BB8
:100BC00002D1144BFB6001E001231BE00B23FB1857
:100BD00000221A7010E00B203B181A78FB68D3181B
:100BE00019003B181B783A68D3180A781A703B181A
:100BF0001A783B1801321A700B23FB181B781F2B35
:100C0000E9D900231800BD4604B080BD6C0400C0C3
:100C1000900400C0B40400C080B582B000AF78601A
:100C20000A00FB1C1A70FB1C1B78012B06D1094B18
:100C3000196A084B7A680A431A6206E0054B1A6A79
:100C40007B68D943034B0A401A62C046BD4602B0D6
:100C500080BDC0460000904080B584B000AF5F4BBF
:100C60001B7ADBB2BB605E4B1B899BB27B600E21A3
:100C70007B1800221A80BB68002B0AD17B680922EE
:100C80001340092B05D17B187A18128820210A43BA
:100C90001A80BB68002B0BD17B6811221340112BEB
:100CA00006D10E22BB18BA18128840210A431A80B6
:100CB000BB68002B0BD17B6821221340212B06D16E
:100CC0000E22BB18BA18128880210A431A80BB680A
:100CD000002B0CD17B6841221340412B07D10E22FF
:100CE000BB18BA181288802149000A431A80BB68D1
:100CF000002B0CD17B6881221340812B07D10E225F
:100D0000BB18BA181288802189000A431A80BB6870
:100D1000002B0FD17A680223FF331A400223FF33DE
:100D20009A4207D10E22BB18BA1812888021C90036
:100D30000A431A80BB68002B0DD17B68294A1340F7
:100D4000284A934207D10E22BB18BA181288802174
:100D500009010A431A80BB68002B0BD17B6805226E
:100D60001340052B06D10E22BB18BA181288102189
:100D70000A431A80BB68002B0BD17B680322134007
:100D8000032B06D10E22BB18BA18128808210A4379
:100D90001A80BB68022B06D10E22BB18BA18128823
:100DA00001210A431A80BB68042B06D10E22BB180E
:100DB000BA18128802210A431A80BB68082B06D190
:100DC0000E22BB18BA18128804210A431A800E2377
:100DD000FB181B881800BD4604B080BD0000904081
:100DE000000010480104000080B582B000AF02008E
:100DF000FB1D1A70FB1D1B78002B05D0074A136BD7
:100E000001210B43136304E0044A136B01218B435C
:100E10001363C046BD4602B080BDC04600003040EE
:100E200090B585B000AF7860994B1B6B1B07DB0F4B
:100E3000DBB2002B09D17B681B681B0119009548A8
:100E4000FFF7A0F90300FB6008E07B681B68DB008C
:100E500019009048FFF796F90300FB60FB68DA0978
:100E600008217B181A808A4A7B181B8893847B1878
:100E70001B88DB011A00FB689B1A01335A080A2001
:100E80003B181A803B181B883F2B0CD97B181A88FB
:100E90007B1801321A803B181B883F3B9AB23B18E3
:100EA0003F210A401A807A4A0A23FB181B88D9B2CC
:100EB0002823D1547B681B7975491A1C03231340DE
:100EC000D8B22C228B5C0324204044016020834351
:100ED000181C231C03438B547B685B796C4A191CD8
:100EE00003230B40D9B2137F032001404801602146
:100EF0008B43191C031C0B4313777B689B79644954
:100F00001A1C01231340D8B22C228B5C01242040F0
:100F1000C40008208343181C231C03438B547B68A4
:100F20009B795B4A191C01230B40D9B2137F012026
:100F30000140C80008218B43191C031C0B43137785
:100F40007B68DB79002B0BD151492C228B5C022072
:100F500083438B544E4A137F02218B43137730E037
:100F60007B68DB79022B16D149492C228B5C02204D
:100F700003438B5446492C228B5C042083438B54BF
:100F8000434A137F02210B431377414A137F042105
:100F90008B43137715E03E492C228B5C02200343E0
:100FA0008B543B492C228B5C042003438B54384ADE
:100FB000137F02210B431377354A137F04210B4320
:100FC00013777B681B7A324A191C01230B40D9B274
:100FD000136B0120014049022F4803400B43136368
:100FE0007B681B7A5B08DBB2294A191C01230B4082
:100FF000D9B2136B012001400902284803400B437A
:1010000013637B685B7A224A191C01230B40D9B217
:10101000136B012001408903214803400B431363F4
:101020007B685B7A5B08DBB2194A191C01230B4011
:10103000D9B2136B01200140C9031A4803400B4386
:1010400013637B689B7A12491A1C01231340D8B2A0
:101050002C228B5C01242040040110208343181CA7
:10106000231C03438B547B689B7A094A191C012378
:101070000B40D9B2137F01200140080110218B439E
:10108000191C031C0B431377C046BD4605B090BD29
:10109000000030400000127AFFFDFFFFFFFEFFFF5F
:1010A000FFBFFFFFFF7FFFFF80B582B000AF0200F0
:1010B000BB1D1A807B1D0A1C1A707B1D1B78002B20
:1010C00009D00E4B1B8F9AB20C49BB1D1B881343D2
:1010D0009BB20B870DE0094B1B8F9BB21BB2BA1D55
:1010E0000021525ED24312B213401AB2034B92B2A5
:1010F0001A87C046BD4602B080BDC04600003040E1
:1011000080B582B000AF0200BB1D1A80054ABB1D2E
:101110001B88DB05DB0D9BB21380C046BD4602B0C9
:1011200080BDC0460000304080B500AF044B1B8836
:101130009BB2FF2213409BB21800BD4680BDC04643
:101140000000304080B582B000AF78607B68002B33
:1011500008DA0B4B5B687A68134001D001230BE07F
:10116000002309E0064B1B8B9BB21A007B681340DF
:1011700001D0012300E000231800BD4602B080BD6D
:101180000000304080B582B000AF0200BB1D1A8065
:10119000074B9B8F9BB2BA1D128813409BB2002B4A
:1011A00001D0012300E000231800BD4602B080BD3D
:1011B0000000304090B583B000AF0200FB1D1A70F4
:1011C0000A49FB1D1B7807221340D8B234228B5CDE
:1011D00007242040C40038208343181C231C0343E9
:1011E0008B54C046BD4603B090BDC04600003040A1
:1011F00090B583B000AF02003960FB1D1A70FB1D73
:101200001B787F2B32D92F4AFB1D1B7819000F2327
:101210000B40083B9B0806339B00D31804331B6824
:10122000FA1D1278110003220A40D200FF219140DA
:101230000A00D2431A4011003B689B01FF221A406A
:10124000FB1D1B78180003230340DB009A401D4858
:10125000FB1D1B781C000F232340083B9B080A43FF
:1012600006339B00C31804331A6027E0164AFB1D9F
:101270001B785BB29B08C0339B009B58FA1D127809
:10128000110003220A40D200FF2191400A00D243FC
:101290001A4011003B689B01FF221A40FB1D1B787E
:1012A000180003230340DB009A400748FB1D1B780E
:1012B0005BB29B080A43C0339B001A50C046BD4630
:1012C00003B090BD00ED00E000E100E080B582B029
:1012D00000AF78607B689B78002B18D07B681B7808
:1012E0005AB27B685B7819001000FFF781FF7B68BA
:1012F0001B781A001F2313400F497A68127852098D
:10130000D2B2100001229A4083005A5010E07B684C
:101310001B781A001F23134007497A681278520974
:10132000D2B2100001229A40030020339B005A5091
:10133000C046BD4602B080BD00E100E080B582B08D
:1013400000AF0200FB1D1A70C0462020FFF7FAFE16
:101350000300012BF9D0FB1D1B789BB21800FFF78F
:10136000CFFEC046BD4602B080BD000090B589B03A
:1013700000AF786001210920FFF74EFC00F048FA29
:1013800003005A1E2B4B9200D2580C243B191A60B2
:1013900000F03EFA03005A1E274B9200D358DAB2EF
:1013A0003B191A713B1900229A713B1900225A719C
:1013B0003B191800FFF7AAF900F02AFA03005A1E99
:1013C0001E4B9200D2583B191A6000F021FA03001C
:1013D0005A1E1B4B9200D358DAB23B191A713B19B3
:1013E0001800FFF793F914217B187A681A607B18AC
:1013F00003221A717B1803225A717B1800229A71FA
:101400007B180022DA717B1800225A727B180322A3
:101410001A727B1801229A727B181800FFF700FDE0
:101420000020FFF7C7FE0120FFF7DEFCC046BD46E7
:1014300009B090BDB0A80510B4A80510B8A8051053
:10144000BCA8051080B584B000AF0200FB1D1A7067
:101450000C217B1804221A707B1803225A707B1807
:10146000FA1D12789A707B181800FFF72FFFFB1DEA
:101470001B7819001020FFF717FEC046BD4604B0C8
:1014800080BD80B582B000AF1020FFF77BFE031E49
:1014900010D00AE0FFF748FE0300DAB2FB1D1A7015
:1014A000FB1D0121180000F08FF81020FFF74AFE05
:1014B000031EEFD0C046BD4602B080BD80B582B0ED
:1014C00000AF7860344B7A681A60344B1800FFF72D
:1014D000C7F80200324B1A60314B1A68E1235B02F5
:1014E0009A4229D02E4B1A68E1231B029A4223D03C
:1014F0002B4B1A68E123DB019A421DD0284B1A6856
:101500009623DB019A4217D0254B1A6896239B013C
:101510009A4211D0224B1A6896235B019A420BD053
:101520001F4B1A6896231B019A4205D01C4B1A6860
:101530009623DB009A4205D1194B1B681800FFF770
:1015400015FF19E0E1235B021800FFF70FFF144BB2
:10155000E12252021A607A20FFF758F8C0460120B3
:10156000FFF7BCF80300012BF9D10D4B1B680B4AA8
:1015700019001000FFF77EF80120FFF763FF094B09
:101580001B68986800230222002103F019F8C04666
:10159000BD4602B080BDC0461803002000D0071031
:1015A000641700200C25002080B582B000AF020037
:1015B000FB1D1A70FB1D1B781800FFF7BFFEC0460D
:1015C000BD4602B080BD000080B582B000AF78603B
:1015D0000A00BB1C1A80074B1B68002B06D0054B6A
:1015E0001B68BA1C11887A6810009847C046BD462F
:1015F00002B080BD1803002080B582B000AF7860D3
:10160000104B1A68104B1B689A4201D1012314E059
:101610000D4B1B680D4AD25C7B681A700A4B1B6825
:101620005A1C094B1A60084B1A688023DB009A4247
:1016300002D1054B00221A6000231800BD4602B0FB
:1016400080BDC0461C070020200700201C0300208E
:1016500080B582B000AF78607B68DBB21800FFF71E
:101660006DFE7B681800BD4602B080BD80B584B0B9
:1016700000AF7860104B1B68002B02D10E4B0F4A55
:101680001A600D4B1B68FB600B4B1A687B68D21805
:101690000B4B9A4205D90B4B0C221A6001235B427B
:1016A00006E0054B1A687B68D218034B1A60FB688A
:1016B0001800BD4604B080BD241700202407002078
:1016C00024170020F823002080B582B000AF786096
:1016D00001235B421800BD4602B080BD80B582B0D8
:1016E00000AF786039603B68802292015A60002325
:1016F0001800BD4602B080BD80B582B000AF7860F2
:1017000001231800BD4602B080BD80B584B000AF93
:10171000F860B9607A6000231800BD4604B080BD4F
:1017200080B586B000AFF860B9607A6000237B6155
:1017300009E07B69BA68D3181B781800FFF734FFFB
:101740007B6901337B617A697B689A42F1DB7B6854
:101750001800BD4606B080BD80B586B000AFF86009
:10176000B9607A6000237B610EE07B69BA68D318A8
:101770001800FFF741FF031E03D17B6901337B6132
:1017800002E07B69002B04D17B697A689A42ECD82D
:1017900000E0C0467B691800BD4606B080BD80B53C
:1017A00084B000AFF860B9607A607A68B968FB68A5
:1017B000180002F04BFEC046BD4604B080BD80B5A7
:1017C00084B000AFF860B9607A607A68B968FB6885
:1017D000180002F03BFEC046BD4604B080BD80B597
:1017E00082B000AF786039603A687B6800211800E9
:1017F00002F048FEC046BD4602B080BD80B500AFD5
:10180000024B01221A70C046BD4680BD2817002039
:1018100080B500AF024B1B78DBB21800BD4680BD1F
:101820002817002080B584B000AF0200FB1D1A709D
:10183000FB1D1B78022B1FD02CDC002B02D0012BB0
:101840000CD027E0FFF7E4FF03005A1E1A491300EB
:101850005B009B189B005B58FB6027E0FFF7D8FFFD
:1018600003005A1E144913005B009B189B00CB1801
:1018700004331B68FB6019E0FFF7CAFF03005A1E20
:101880000D4913005B009B189B00CB1808331B68A5
:10189000FB600BE0FFF7BCFF03005A1E0649130074
:1018A0005B009B189B005B58FB60C046FB68180000
:1018B000BD4604B080BDC046C0A8051080B584B048
:1018C00000AF0200FB1D1A7001210120FFF7A4F9EF
:1018D000FB1D1B781800FFF7A5FF020008217B18ED
:1018E0001A607B1806221A717B1801229A717B18E4
:1018F00001225A717B181800FEF708FFFB1D1B78A8
:10190000180000F018F8C046BD4604B080BD80B590
:1019100082B000AF0200FB1D1A70FB1D1B7818007F
:10192000FFF780FF030000211800FEF7FDFFC0460F
:10193000BD4602B080BD80B582B000AF0200FB1D85
:101940001A70FB1D1B781800FFF76CFF03000121C4
:101950001800FEF7E9FFC046BD4602B080BD80B565
:1019600082B000AF786039603A687B681100180077
:101970000BF03CFDC046BD4602B080BD80B582B0D4
:1019800000AF78607B6818000BF0E8F803001800DF
:10199000BD4602B080BD80B500AF0BF0E9FB03008F
:1019A0001800BD4680BD90B587B004AF0400396013
:1019B00010001900FB1D221C1A70BB1D021C1A709E
:1019C0003B1D0A1C1A803B1D1C88BB1D1A783968F8
:1019D000FB1D18782423FB181B8803933B6A029392
:1019E0001C23FB181B8801931823FB181B880093EA
:1019F00023000BF0EDFDC046BD4603B090BDB0B571
:101A000086B004AF05000C0010001900FB1D2A1C55
:101A10001A70BB1D221C1A707B1D021C1A703B1D04
:101A20000A1C1A703B1D1C787B1D1A78BB1D197887
:101A3000FB1D18782023FB181B7802931C23FB182E
:101A40001B780193BB69009323000BF001FD030099
:101A50001800BD4602B0B0BD80B582B000AF78605E
:101A600039603A687B681100180004F095FC0300A7
:101A70001800BD4602B080BD80B584B000AFF860EC
:101A8000B9607A601A00FB1C1A70FB1C1B787A681C
:101A9000B968F8680DF04CFA03001800BD4604B0B0
:101AA00080BD80B500AF01231800BD4680BDF0B5F4
:101AB0008DB008AF0400080011007B600E257B1973
:101AC000221C1A800C26BB19021C1A800B203B1802
:101AD0000A1C1A707C683B181A78BB1919887B1984
:101AE000188838230825AC46BC4463441B880693F9
:101AF00034230825AC46BC4463441B88059330233B
:101B00000825AC46BC4463441B8804932C23082559
:101B1000AC46BC4463441B88039328230825AC4689
:101B2000BC4463441B88029324230825AC46BC4470
:101B300063441B88019320230825AC46BC446344BE
:101B40001B780093230003F029FE03001800BD4614
:101B500005B0F0BD80B582B000AF0200FB1D1A7069
:101B6000FB1D1B78180003F091FE03001800BD4612
:101B700002B080BDB0B582B000AF05000C0010000F
:101B80001900BB1D2A1C1A803B1D221C1A80FB1C3D
:101B9000021C1A70BB1C0A1C1A70BB1C1C78FB1C94
:101BA0001A783B1D1988BB1D1888230003F066FEB8
:101BB00003001800BD4602B0B0BD80B500AF04F010
:101BC0005BF9C046BD4680BD80B582B000AF020063
:101BD000FB1D1A70FB1D1B7818000FF021FC030081
:101BE0001800BD4602B080BD80B582B000AF7860FD
:101BF0007B6818000DF060F8C046BD4602B080BD9D
:101C000080B500AF10F004FDC046BD4680BD80B574
:101C100082B000AF78600A00FB1C1A70FB1C1A78B7
:101C20007B681100180004F08DFB03001800BD460E
:101C300002B080BD80B500AF04F08CFBC046BD464D
:101C400080BD80B500AF08F0F7FEC046BD4680BD40
:101C500080B582B000AF78607B68180012F082FC1B
:101C600003001800BD4602B080BD80B582B000AF51
:101C700078607B68180012F099F9C046BD4602B042
:101C800080BD80B582B000AF78607B68180012F02C
:101C9000F1FC03001800BD4602B080BD80B582B0E3
:101CA00000AF78607B68180012F0A7F9C046BD4607
:101CB00002B080BD80B582B000AF78607B6818004C
:101CC0000AF054FC03001800BD4602B080BD80B588
:101CD00082B000AF78607B6818000AF057FCC046FD
:101CE000BD4602B080BD80B582B000AF78607B6831
:101CF00018000AF057FC03001800BD4602B080BD72
:101D000080B500AF0BF0BCFDC046BD4680BDB0B590
:101D100084B000AFBA607B600F257B19021C1A707B
:101D20000E203B180A1C1A707C68BA683B18197898
:101D30007B191878230008F055FC03001800BD46F5
:101D400004B0B0BDB0B582B000AF05000C0010000B
:101D50001900BB1D2A1C1A803B1D221C1A80BB1CAB
:101D6000021C1A803B000A1C1A803B001C88BB1C0A
:101D70001A883B1D1988BB1D188823000BF0C0FF73
:101D800003001800BD4602B0B0BD80B582B000AF00
:101D900078607B6818000BF0C3FD03001800BD4697
:101DA00002B080BD80B582B000AF0200BB1D1A80BA
:101DB000BB1D1B8818000BF0E5FE03001800BD4694
:101DC00002B080BD80B500AF01231800BD4680BDC4
:101DD00080B500AF07F0CEFCC046BD4680BD80B5E3
:101DE00082B000AF0200FB1D1A70FB1D1B781800AB
:101DF00014F0A8FCC046BD4602B080BD80B582B0DC
:101E000000AF78607B68180014F070FC03001800C5
:101E1000BD4602B080BD80B500AF14F04FFCC04697
:101E2000BD4680BD80B582B000AF78607B68180089
:101E300014F022FEC046BD4602B080BD80B500AFA2
:101E400001231800BD4680BD80B582B000AF786028
:101E50007B68180014F096FEC046BD4602B080BDF7
:101E600080B582B000AF78607B68180014F050FE37
:101E7000C046BD4602B080BD80B582B000AF78607C
:101E80007B68180013F0AEF803001800BD4602B0DE
:101E900080BD80B582B000AF78607B68180013F019
:101EA000BBF8C046BD4602B080BD80B582B000AF71
:101EB00078607B68180013F02DF9C046BD4602B06B
:101EC00080BD80B582B000AF78607B68180013F0E9
:101ED0001BF8C046BD4602B080BD80B582B000AFE1
:101EE00078607B68180013F027F803001800BD46DF
:101EF00002B080BD80B582B000AF78607B6818000A
:101F000013F03CF8C046BD4602B080BD80B582B03B
:101F100000AF78607B68180013F094F8C046BD46A7
:101F200002B080BD80B582B000AF78607B681800D9
:101F300013F0A2F8C046BD4602B080BD80B582B0A5
:101F400000AF78607B68180012F08CF8030018006E
:101F5000BD4602B080BD80B582B000AF78607B68BE
:101F6000180012F053F8C046BD4602B080BD80B5DF
:101F700082B000AF78607B68180012F03BFC030071
:101F80001800BD4602B080BD80B582B000AF786059
:101F90007B68180012F02AFB03001800BD4602B04F
:101FA00080BD000090B583B000AF02003960FB1D1A
:101FB0001A70FB1D1B787F2B32D92F4AFB1D1B7813
:101FC00019000F230B40083B9B0806339B00D318D6
:101FD00004331B68FA1D1278110003220A40D20054
:101FE000FF2191400A00D2431A4011003B689B0137
:101FF000FF221A40FB1D1B78180003230340DB005F
:102000009A401D48FB1D1B781C000F232340083BF2
:102010009B080A4306339B00C31804331A6027E069
:10202000164AFB1D1B785BB29B08C0339B009B5874
:10203000FA1D1278110003220A40D200FF219140BC
:102040000A00D2431A4011003B689B01FF221A404C
:10205000FB1D1B78180003230340DB009A40074850
:10206000FB1D1B785BB29B080A43C0339B001A50D0
:10207000C046BD4603B090BD00ED00E000E100E0C9
:1020800080B500AFBFF34F8FC046034B034ADA6001
:10209000BFF34F8FC046FEE700ED00E00400FA05F5
:1020A00080B500AFC046BD4680BD80B500AFC0461C
:1020B000BD4680BD80B500AFC046BD4680BD80B581
:1020C00000AFC046BD4680BD80B500AFC046BD462E
:1020D00080BD80B500AFC046BD4680BD80B500AFB5
:1020E000C046BD4680BD80B500AFC046BD4680BD80
:1020F00080B500AFC046BD4680BD80B500AFC046CC
:10210000BD4680BD80B500AFC046BD4680BD80B530
:1021100000AFC046BD4680BD80B500AFC046BD46DD
:1021200080BD80B500AFC046BD4680BD80B582B0E1
:1021300000AF1D4A137A01210B4313721B4B00227F
:102140001A60FB1D00221A700FE0FEF785FD0300E8
:102150001A003B1D1A803B1D1B889BB2002B09D126
:10216000FB1D1A78FB1D01321A70FB1D1B78022B18
:10217000EBD900E0C0463B1D1B889BB21F2B0DD93D
:102180003B1D1B889BB2180000F060F9084B012230
:102190001A70FDF7BEFFFFF773FFFCE7012318007D
:1021A000BD4602B080BDC0460000204014000020A3
:1021B0000C00002080B584B000AFFFF7B7FF03002C
:1021C000012B39D1224BFB60224BBB6007E0FA6840
:1021D000131DFB60BB68191DB96012681A60BA68EC
:1021E0001D4B9A42F3D31D4BFB601D4BBB6007E0B8
:1021F000FA68131DFB60BB68191DB96012681A608C
:10220000BA68184B9A42F3D3174BBB6004E0BB6823
:102210001A1DBA6000221A60BA68144B9A42F6D3AB
:10222000134BBB6004E0BB681A1DBA6000221A6041
:10223000BA68104B9A42F6D30F4B7B607B6883F3EE
:102240000888C04600F0DEFAC046BD4604B080BD36
:1022500094AD0510082400207025002068AD0510FD
:102260000800002034000020C0000020CC02002024
:10227000CC020020082400200060002080B582B03D
:1022800000AFFB1D00221A700BE0FB1D1B78224AD9
:10229000D35CDBB20133D9B2FB1DFA1D12788A1868
:1022A0001A70FB1D1B781C4AD35CDBB2002BECD1EF
:1022B000FB1D1B781C2B2AD8FB1D1B78164A0221FC
:1022C000D154FB1D1B780133134A2121D154FB1D2E
:1022D0001B780233104A0821D154FB1D1B780333AD
:1022E0000D4A0021D154FB1D1A780B4BD3189BB219
:1022F00019009023DB05802252020A43DA60C046AF
:102300009023DB05DA6880235B021340F8D1C046D6
:10231000BD4602B080BDC0462C17002080B584B0F9
:1023200000AF0200FB1D1A700F23FB1800221A7069
:102330000CE00F203B181B781F4AD35CDBB2013343
:10234000D9B23B183A1812788A181A700F203B1825
:102350001B78194AD35CDBB2002BEAD13B181B78FF
:102360001C2B17D83B181B78134A0221D1543B1859
:102370001B780133104A3521D1543B181B780233A6
:102380000D4AF91D0978D1543B181B7803330A4ACA
:102390000021D154094B02221A70084B35225A7081
:1023A000064BFA1D12789A70044B0022DA70C04670
:1023B000BD4604B080BDC0462C1700201C00002084
:1023C00080B584B000AF0200FB1D1A70FB1D1B78A6
:1023D000002B11D01C4B9BB219009023DB058022EF
:1023E00052020A43DA60C0469023DB05DA68802394
:1023F0005B021340F8D122E00F23FB18124A9278B7
:102400001A70114B9B78DBB204229343DAB20E4B65
:102410009A700D4B9BB219009023DB05802252026B
:102420000A43DA60C0469023DB05DA6880235B024A
:102430001340F8D1044B0F22BA1812789A70C04694
:10244000BD4604B080BDC0461C000020B0B588B0B9
:1024500000AF0200BB1D1A8001235B42BB611F2538
:102460007B1901221A70BB1D1A888023DB001340E0
:102470003BD108243B191800FEF728F82200BB18AE
:102480005B781B01BA1892781343112B02DC7B197D
:1024900000221A70184B1B680822134008D11F2312
:1024A000FB181B78002B22D00120FFF789FF1EE0CC
:1024B0009023DB051B6928337B61104B1A687B690D
:1024C000D31A1B021B12BB61BB69002B10DD1F233B
:1024D000FB181B78002B02D00120FFF771FF90231F
:1024E000DB05064A12685A6002E0C04600E0C046BA
:1024F000BD4608B0B0BDC046C00000201800002096
:10250000B0B590B000AF0200FB1D1A70BB1D0A1CD5
:102510001A700C243B19774A23CA23C323CA23C346
:1025200012781A702823FB181800FDF7CFFFFB1D47
:102530001B78002B00D1AFE03B1944229A736E4AFE
:10254000137A01210B43137220003B184C22DA72DC
:102550003B1820221A723B18B2225A743B185B2295
:102560001A75664B1B68FB63FB6B1B0C644A93423A
:1025700015D13B18DB7DDBB270229343DAB23B18F6
:10258000DA753B18DB7DDAB2FB6BDBB21B01DBB229
:1025900070210B40DBB21343DAB23B18DA75594BAA
:1025A0001B68FB63FB6B1B0C554A934216D10C2036
:1025B0003B185B79DBB230229343DAB23B185A7195
:1025C0003B185B79DAB2FB6BDBB21B01DBB230216B
:1025D0000B40DBB21343DAB23B185A714A4B1B680B
:1025E000FB63FB6B1B0C464A934214D10C203B1837
:1025F000DB7DDBB203229343DAB23B18DA753B187A
:10260000DB7DDAB2FB6BDBB203210B40DBB21343A1
:10261000DAB23B18DA750C217B18DB7ADBB20422C4
:102620009343DAB27B18DA722822BB185B781B015D
:10263000BA1892781343112B11DD7B18DB7DDBB2C6
:1026400004221343DAB27B18DA753B203B187A1860
:10265000D27D1A703B181B781800FFF75FFE0C2321
:10266000FB189BB219009023DB05802252020A431B
:10267000DA60C0469023DB05DA6880235B021340F2
:10268000F8D12822BB185B781B01BA189278134343
:10269000112B01DDFFF7F2FDC0461C4B1B8B9BB2DB
:1026A000002BFAD0194B01221A83184B17229A815A
:1026B000164B00221A61BB1D1B78002B0CD09023F7
:1026C000DB051B697B63C0469023DB051A697B6BC6
:1026D000534010221340F7D0FB1D1B78002B02D073
:1026E0000B4B15221A700B4B0B4A1A60C046BD46A5
:1026F00010B0B0BD94A7051000002040E8070010FE
:1027000055AA0000E4070010B007001000001048B0
:102710000000C04014000020CCBCECFC80B500AF31
:102720002D4B08229A8002235B4203211800FFF7F9
:1027300039FC01235B4203211800FFF733FC03211E
:102740000020FFF72FFC03210120FFF72BFC0321C2
:102750000420FFF727FC03210520FFF723FC0021BD
:102760000620FFF71FFC03210720FFF71BFC0321B6
:102770000D20FFF717FC03210E20FFF713FC0321A8
:102780000F20FFF70FFC03211120FFF70BFC0321A3
:102790001220FFF707FC03211320FFF703FC03219E
:1027A0001420FFF7FFFB03211520FFF7FBFB03219C
:1027B0001620FFF7F7FB03211720FFF7F3FB01219A
:1027C0000120FFF79DFE054B054A1A6262B6C0461E
:1027D000C046BD4680BDC04600001040000090408D
:1027E00066000E0080B500AFBFF34F8FC046034BAD
:1027F000034ADA60BFF34F8FC046FEE700ED00E00A
:102800000400FA0590B583B000AFFFF787FFFEF72D
:10281000F5FFFDF71DFE0020FFF750F80020FFF741
:102820008AF80F4B1800FEF749FEFC1D0D4B1800EF
:1028300003F0FEF803002370FB1D1B78002B00D073
:10284000FEE7FC1D01F08AF803002370FB1D1B78D6
:10285000002B00D0FEE703F0A9F801F053FAFAE7E5
:10286000DD2E0410CCA8051080B582B000AF0200A8
:10287000FB1D1A70FFF7B6FFC046BD4602B080BD13
:1028800080B584B000AF3A60FB1D021C1A70BB1DFE
:102890000A1C1A70FB1D1B78032B12D83B681B788F
:1028A0001AB23B6801331B781B021BB213431AB2E6
:1028B0000E217B181A807B181B881321180002F048
:1028C000E1FFC046BD4604B080BD80B500AFC04644
:1028D000BD4680BD80B500AFFEE780B500AFC04605
:1028E000BD4680BD80B500AFFDF7A6FDC046BD4624
:1028F00080BD80B500AFC046BD4680BD80B500AF8D
:10290000FEF7BFFDC046BD4680BD80B500AF07F0F5
:10291000FFFEC046BD4680BDF0B595B006AF242190
:102920007B183A4A31CA31C312681A601426BB199F
:10293000374A31CA31C312681A603B1D354A31CA61
:1029400031C312681A607918334B10221800FDF752
:1029500029FE37257C193049304B0093062301228C
:10296000022002F0C9FF030023707B191B78002BA3
:1029700041D1B9192A4B10221800FDF713FE274B3D
:1029800018887C19264A274B0593012304931023AA
:102990000393002302930023019310230093142335
:1029A000022102F08AFF030023707B191B78002BA1
:1029B00023D1391D1A4B10221800FDF7F3FD174BD8
:1029C00018887C19164A184B059301230493102389
:1029D000039301230293002301930C2300931423F8
:1029E000022102F06AFF030023707B191B78002B81
:1029F00005D1002305E0C04602E0C04600E0C04625
:102A000047231800BD460FB0F0BDC046B0A7051063
:102A1000C0A70510D0A70510C0230020BA230020AE
:102A2000A8230020B8230020BC23002080B582B05A
:102A300000AF0200FB1D1A70FB1D1B781A001F233C
:102A4000134001229A40034B1A60C046BD4602B0B3
:102A500080BDC04600E100E080B582B000AF02005A
:102A6000FB1D1A70FB1D1B781A001F231340012247
:102A70009A401300034A19008023D150C046BD4636
:102A800002B080BD00E100E080B584B000AF7860A6
:102A90000A00FB1C1A707820FDF7B8FDC046012023
:102AA000FDF71CFE0300012BF9D1254B00221A7003
:102AB0003BE0244B00221A600F23FB1800221A70FF
:102AC0001BE01F4B1B781A000F217B181B78D318B3
:102AD0001A007B689B181B781A007B181B78DB0098
:102AE0009A4013001A00174B1B681A43154B1A60C3
:102AF0007B181A787B1801321A700F23FB181B7889
:102B0000032BDED90E4B1B780F4A944663449B007F
:102B10001A000C4B1B6819001000FDF7ABFD084BA9
:102B20001B780433DAB2064B1A70054B1B78FA1C7B
:102B300012789A42BDD2C046C046BD4604B080BDA0
:102B4000842300208823002000F0010480B584B095
:102B500000AF78607920FDF759FDC0460120FDF7F0
:102B6000BDFD0300012BF9D1174B00221A600F2382
:102B7000FB1800221A7016E00F217B181B787A6868
:102B8000D3181B781A007B181B78DB009A401300BF
:102B90001A000D4B1B681A430B4B1A607B181A78EE
:102BA0007B1801321A700F23FB181B78032BE3D913
:102BB000054B1B68054A19001000FDF75BFDC04678
:102BC000BD4604B080BDC0468823002000C8071061
:102BD00080B582B000AF78607A20FDF717FDC0465F
:102BE0000120FDF77BFD0300012BF9D17B68044A2E
:102BF00019001000FDF73EFDC046BD4602B080BD85
:102C000000D0071080B584B000AF78607B20FDF75E
:102C1000FDFCC0460120FDF761FD0300012BF9D149
:102C2000244B00221A703BE0234B00221A600F2332
:102C3000FB1800221A701BE01E4B1B781A000F2194
:102C40007B181B78D3181A007B689B181B781A0016
:102C50007B181B78DB009A4013001A00164B1B6888
:102C60001A43154B1A607B181A787B1801321A70B8
:102C70000F23FB181B78032BDED90E4B1B780F4A52
:102C8000944663449B001A000B4B1B68190010000C
:102C9000FDF7F0FC074B1B780433DAB2054B1A70D2
:102CA000044B1B78072BBFD9C046C046BD4604B0B5
:102CB00080BDC046842300208823002000F6010444
:102CC00080B582B000AF544B00221A702DE0524BF9
:102CD0001B78524A944663449B001800FDF7C0FCE1
:102CE00002004F4B1A60FB1D00221A7013E04C4B80
:102CF0001A68FB1D1B78DB00DA40474B1B78190074
:102D0000FB1D1B78CB18D1B2464AD154FB1D1A7853
:102D1000FB1D01321A70FB1D1B78032BE7D93E4BBC
:102D20001B780433DAB23C4B1A703B4B1B78132BE5
:102D3000CDD9394B1B781A003A4B00219954384BA6
:102D400000221A60384B1800FDF78AFC0200344B51
:102D50001A60BB1D00221A700FE0314B1A68BB1DB0
:102D60001B78DB00DA40BB1D1B78D1B22F4AD1544F
:102D7000BB1D1A78BB1D01321A70BB1D1B78032BBB
:102D8000EBD92A4B00229A70254B00221A60224B65
:102D900000221A702DE0204B1B78254A944663448C
:102DA0009B001800FDF75CFC02001D4B1A607B1DA8
:102DB00000221A7013E01A4B1A687B1D1B78DB0087
:102DC000DA40154B1B7819007B1D1B78CB18D1B24C
:102DD000184AD1547B1D1A787B1D01321A707B1D55
:102DE0001B78032BE7D90C4B1B780433DAB20A4B60
:102DF0001A70094B1B78062BCDD90E4B00229A7105
:102E00000D4B1800FDF72CFC02000C4B1A60C0465D
:102E1000BD4602B080BDC0468423002000F00104FE
:102E2000882300207017002000C80710C01700205A
:102E300000F60104D023002000D007106417002002
:102E400080B582B000AF00237B6000237B6007E089
:102E5000074A7B68D31800221A707B6801337B60B5
:102E60007B684F2BF4DDC046C046BD4602B080BD36
:102E70007017002080B582B000AF00237B60002374
:102E80007B6007E0084A7B68D31800221A707B68D1
:102E900001337B607B68054A9342F3DDC046C04640
:102EA000BD4602B080BDC046C4170020B70B00006D
:102EB00080B582B000AF00237B6000237B6002E01E
:102EC0007B6801337B607B68034A9342F8DDC04630
:102ED000C046BD4602B080BD3F0D030080B586B040
:102EE00000AF78600A00BB1C1A801723FB18002271
:102EF0001A700023FB6000233B61DA4B00221A703A
:102F000000F070FCD84B1B68D84A934202DDD64BC8
:102F100000221A60D64B1B78002B00D109E1D54B5B
:102F20001A6880239B00134000D102E1D24B1B782A
:102F3000012B10D1D14B1A78D14B1A70CF4B5A7844
:102F4000CF4B5A70CE4B2C229A70C74B03221A607B
:102F5000C94B00221A70C34B1B781A007B689A1861
:102F6000C14B1B681178C64AD154BF4B1B685A1C11
:102F7000BD4B1A60BC4B1B68013BC14AD35C242B80
:102F800023D1B94B1B68023BBD4AD35C232B1CD118
:102F9000B54B1B68033BBA4AD35C402B15D1B24BEF
:102FA0001B68B74A0021D154AF4B00221A60B04BC6
:102FB00000221A70FFF77CFFB24AB34B11001800D1
:102FC00001F068FAA84B00221A60B04B1B78002B66
:102FD0006FD1AA4B1B78302B31D1A84B5B78322BA9
:102FE0002DD1A14B1B68013BA54AD35C0D2B00D012
:102FF0009EE09D4B1B68012B1DD09F4B01221A7038
:10300000994B1B68591C984A11609D4A0321D15461
:10301000954B1B689A4A0021D154964B1B6880221D
:1030200052021A43934B1A600420FFF715FD984B88
:1030300000221A607CE08C4B00221A6078E08A4BF8
:103040001B68013B8E4AD35C0A2B01D000F0C3FB06
:10305000854B1B68023B8A4AD35C0D2B01D000F0E4
:10306000BAFB814B1B68012B1ED0834B01221A70C7
:103070007D4B1B68591C7C4A1160814A0321D15445
:10308000794B1B687E4A0021D1547A4B1B68802201
:1030900052021A43774B1A600420FFF7DDFC7C4B89
:1030A00000221A6000F097FB6F4B00221A6000F0BC
:1030B00092FB6D4B1B68013B714AD35C242B00D003
:1030C00089E3744B1B780133DAB2724B1A70714B7F
:1030D0001B78112B00D87EE36E4B00221A70624BD6
:1030E0001B68012B20D0644B01221A705E4B1B68B9
:1030F000591C5D4A1160624A0321D1545A4B1B6826
:103100005F4A0021D1545B4B1B68802252021A4354
:10311000584B1A600420FFF79FFC5C4B00221A708A
:103120005B4B00221A6056E34F4B00221A6052E3B9
:1031300051E34C4B1B781A007B689A184A4B1B686A
:1031400011784F4AD154484B1B685A1C464B1A60A1
:10315000454B1B68013B4A4AD35C0A2B07D0424BC4
:103160001B68013B464AD35C0D2B00D034E33E4B39
:103170001B68012B00D12AE33B4B1B68404A00210E
:10318000D154454B1800FCF7EBFF02003C49424B81
:10319000180001F0DDFA031E45D1404A384B1100FA
:1031A000180001F0E7FA03003B612FE017217B18BC
:1031B0001A787B1801321A700A00BB181B78022B90
:1031C0001DD1BB1800221A70FFF73AFE344B0922BA
:1031D0001A703B691800FCF7C3FF02003969314BD4
:1031E000180001F033F92E4B1800FCF7B9FF03006B
:1031F000DAB22B4B11001800FFF746FC09E0274B11
:103200001900002001F0B6FA03003B613B69002B76
:10321000CCD11C4A1C4B1100180001F03BF9124B99
:1032200000221A60CFE2204B1800FCF799FF020041
:1032300013491D4B180001F08BFA031E38D1FFF71C
:103240003FFD184A194B1100180001F023F90D4AEF
:103250000D4B1100180001F01DF9034B00221A60FC
:10326000B1E2C046842300207C230020B60B00007E
:10327000052500206024002006250020C01700201E
:10328000C4170020FC240020E0A705108C23002098
:10329000802300208D23002080240020E4A7051037
:1032A00070170020711700208C240020E8A705105B
:1032B000DA4B1800FCF754FF0200D949D74B18002D
:1032C00001F046FA031E45D1D64AD54B110018002D
:1032D00001F050FA03003B612FE017217B181A78A8
:1032E0007B1801321A700A00BB181B78022B1DD103
:1032F000BB1800221A70CC4B00221A70CA4B002255
:103300005A70C94B00229A70C74B0022DA703B6991
:103310001800FCF725FF02003969C34B180001F0C3
:1033200095F8C14B1800FFF711FC09E0BD4B1900DF
:10333000002001F01FFA03003B613B69002BCCD158
:10334000BA4ABB4B1100180001F0A4F8B94B002297
:103350001A6038E2B84B1800FCF702FF0200B049CF
:10336000B54B180001F0F4F9031E11D1FFF7A8FCCA
:10337000AD4AB24B1100180001F08CF8AB4AAC4BCF
:103380001100180001F086F8AA4B00221A601AE218
:10339000AB4B1800FCF7E4FE0200A149A84B180053
:1033A00001F0D6F9031E27D19D4BDA79A54B1A708F
:1033B0009B4B5A7AA34B5A70994BDA7AA14B9A706D
:1033C000974B5A7B9F4BDA70954BDA7B9D4B1A716A
:1033D000934B5A7C9B4B5A719A4B1800FFF712FC87
:1033E000FFF766FD914A924B1100180001F052F868
:1033F000904B00221A60E6E1934B1800FCF7B0FEF8
:1034000002008749904B180001F0A2F9031E11D168
:10341000FFF756FC8B4A8D4B1100180001F03AF86B
:10342000824A834B1100180001F034F8814B0022CE
:103430001A60C8E1864B1800FCF792FE020078493A
:10344000834B180001F084F9031E0FD1814B180043
:1034500001F0ACF8FFF72CFD744A754B1100180011
:1034600001F018F8734B00221A60ACE17A4B180097
:10347000FCF776FE02006A49774B180001F068F904
:10348000031E00D008E1664B1B7A312B18D1674A26
:10349000674B1100180000F0FDFF664B00221A6018
:1034A000FFF706FDE1235B021800FFF791FB002008
:1034B000FDF79AFCE1235B021800FDF757FF82E15C
:1034C000574B1B7A322B18D1584A594B1100180010
:1034D00000F0E0FF574B00221A60FFF7E9FCE12300
:1034E0001B021800FFF774FB0020FDF77DFCE123B1
:1034F0001B021800FDF73AFF65E1494B1B7A332B9D
:1035000018D14A4A4A4B1100180000F0C3FF494B3A
:1035100000221A60FFF7CCFCE123DB011800FFF763
:1035200057FB0020FDF760FCE123DB011800FDF7ED
:103530001DFF48E13A4B1B7A342B18D13B4A3C4BD8
:103540001100180000F0A6FF3A4B00221A60FFF7A6
:10355000AFFC9623DB011800FFF73AFB0020FDF7D4
:1035600043FC9623DB011800FDF700FF2BE12C4BF9
:103570001B7A352B18D12D4A2D4B1100180000F065
:1035800089FF2C4B00221A60FFF792FC96239B01C7
:103590001800FFF71DFB0020FDF726FC96239B017A
:1035A0001800FDF7E3FE0EE11D4B1B7A362B18D1F8
:1035B0001E4A1F4B1100180000F06CFF1D4B00222B
:1035C0001A60FFF775FC96235B011800FFF700FBFC
:1035D0000020FDF709FC96235B011800FDF7C6FEED
:1035E000F1E00F4B1B7A372B38D1104A104B1100EA
:1035F000180000F04FFF0F4B00221A60FFF758FC35
:1036000096231B011800FFF7E3FA0020FDF7ECFBFF
:1036100096231B011800FDF7A9FED4E09824002092
:10362000C4170020E4A70510C0170020FC240020C8
:10363000E0A705107C230020A8240020F8A705108F
:10364000B8240020D0230020C82400200CA8051096
:10365000F02400201CA80510D8240020684B1B7AF9
:10366000382B00D0AFE0674A674B1100180000F01C
:1036700011FF664B00221A60FFF71AFC9623DB004D
:103680001800FFF7A5FA0020FDF7AEFB9623DB003C
:103690001800FDF76BFE96E05D4B1800FCF760FD2F
:1036A000020057495A4B180001F052F8031E00D08F
:1036B00072E0FFF705FB574B1A68E1235B029A4261
:1036C00006D1554B180000F071FFFFF7F1FB59E0F0
:1036D000504B1A68E1231B029A4206D14F4B180047
:1036E00000F064FFFFF7E4FB4CE04A4B1A68E1236B
:1036F000DB019A4206D14A4B180000F057FFFFF752
:10370000D7FB3FE0434B1A689623DB019A4206D170
:10371000444B180000F04AFFFFF7CAFB32E03D4B74
:103720001A6896239B019A4206D13F4B180000F07D
:103730003DFFFFF7BDFB25E0364B1A6896235B0182
:103740009A4206D1394B180000F030FFFFF7B0FB6A
:1037500018E0304B1A6896231B019A4206D1344B6D
:10376000180000F023FFFFF7A3FB0BE0294B1A68BA
:103770009623DB009A4205D12E4B180000F016FF6D
:10378000FFF796FB1F4A204B1100180000F082FE45
:103790001E4B00221A6016E0274B1800FCF7E0FCD5
:1037A00002001749244B180000F0D2FF031E0AD173
:1037B000FFF77EFB134A144B1100180000F06AFE5D
:1037C000124B00221A601D4B00221A6004E00F4BBE
:1037D00000221A6000E0C046194B1B780133DAB2B0
:1037E000174B1A70164B1B789BB2BA1C12889A4260
:1037F00001D9FFF787FBC046C046BD4606B080BD75
:10380000C4170020FC240020E0A705107C23002022
:10381000E4240020641700202CA8051038A8051007
:1038200044A8051050A805105CA8051068A805104C
:1038300074A8051080A8051074240020802300209F
:103840008423002080B500AF0E4B00221A700D4B70
:1038500000225A700B4B00229A700A4B0022DA7039
:10386000084B00225A60074B00221A82064B0622A0
:1038700000211800FCF7A7FE044BFF221A70C04677
:10388000BD4680BD4C170020551700206424002041
:1038900090B583B000AFFFF713FABC1D0E4B1A00B2
:1038A0000621002002F07EF803002370BB1D1B7868
:1038B000002B0CD1FB1D05221A7004E0FB1D1A78A9
:1038C000FB1D013A1A70FB1D1B78002BF6D1C04678
:1038D000BD4603B090BDC046D023002080B584B063
:1038E00000AF02003960FB1D1A700F23FB18002285
:1038F0001A7025E00F217B181B7801333A68D31822
:103900001B78092B0FD17B181B7801333A68D31829
:1039100011490C22180000F08BFD031E01D1012378
:1039200016E0002314E00F217B181B783A68D318A7
:103930001A787B181B78D318DAB27B1801321A7008
:103940000F23FA18FB1D12781B789A42D2D300235A
:103950001800BD4604B080BD6824002090B585B035
:1039600002AFFFF795FF0721012002F017F8FC1DB9
:1039700001F0F1FF03002370FB1D1B78002B02D028
:10398000FB1D1B7823E0FC1D3A1D3B000193BB1C73
:103990000093130007220021012001F02CFF0300F7
:1039A0002370FB1D1B78002B02D0FB1D1B780EE043
:1039B000FC1DFEF7B1FF03002370FB1D1B78002BDD
:1039C00002D0FB1D1B7802E0FFF73CFF002318002C
:1039D000BD4603B090BD0000F0B587B004AF364BD4
:1039E0001A6880235B02134062D0334B1A6880232D
:1039F0001B0213405CD146E0304B1A68304B1B6809
:103A0000D31A142B00DD14237B602E4B1B8898B235
:103A10002D4B19887B68DAB2294B1B681C002B4B95
:103A2000E31800931300002201F099FF254B1B8837
:103A300098B2274B1C88244B1D887B689AB27B6800
:103A4000D9B21F4B1B681E00204BF3180393029141
:103A500000230193009201232A00210001F089FF35
:103A60000300642B07D1144B1B68802212021A43F7
:103A7000114B1A601DE0124B1B681A007B68D318AB
:103A80001A000F4B1A600E4B1A680C4B1B689A42B7
:103A9000B2DBFFF7EFF9084B1B680E4A1A40064BE2
:103AA0001A60064B00221A600420FEF7BFFF00E0F8
:103AB000C046BD4603B0F0BD602400207C2300203A
:103AC0008023002060170020B8230020C4170020A6
:103AD000BA230020FFFFFEFFB0B58AB008AF844BC9
:103AE0001B8A802B00D1F7E000DDF9E0202B0ADCF7
:103AF000002B00DAF4E0202B00D9F1E09A007D4B96
:103B0000D3181B689F46402B5BD0E9E0FFF79AFE75
:103B1000774B01221A82E6E0BC1D8023D901802365
:103B2000D80100230022FEF725F803002370BB1DF7
:103B30001B78002B03D06E4B80221A82D3E0FCF757
:103B400093FC02006A4B5A60694B01221A70684B61
:103B500000225A70664B04221A82C4E0644B1B7820
:103B6000012B14D1FCF780FC0200614B5B68D31A77
:103B7000614A1288934200D8B4E05D4B00221A706B
:103B80005B4B00225A605A4B20221A82AAE0584B03
:103B90005B78012B00D0A5E0FCF766FC0200544BDB
:103BA0005B68D31A544A1288934200D89AE0504B6B
:103BB00000225A704E4B00225A604D4B40221A820E
:103BC00090E0BC1D01F050FE03002370BB1D1B786C
:103BD000002B03D0464B80221A8284E0444B002203
:103BE0001A8280E0BC1D0220FDF7B4FF03002370A1
:103BF000BB1D1B78002B03D03D4B80221A8272E044
:103C00003B4B02221A826EE0FB1D05221A7004E073
:103C1000FB1D1A78FB1D013A1A70FB1D1B78002B47
:103C2000F6D1334B1A7ABC1D344D8023D901802341
:103C3000D801FA23DB000693FA23DB0005933C232B
:103C40000493002303932823029328230193002342
:103C500000932B00FDF72BFF03002370BB1D1B7887
:103C6000002B03D0224B80221A823CE0204B022200
:103C70001A8238E01E4B02221A8234E00021002012
:103C800005F0BAFEFFF71CF81D4B1800FCF768FAA8
:103C90000300DBB2BC1D0022069200220592002226
:103CA000049200220392164A029201930023009389
:103CB000002300220021002001F0B5FD0300237045
:103CC000BB1D1B78002B03D0094B80221A820AE00F
:103CD000074B02221A8206E0054B10221A8202E0EC
:103CE000C04600E0C046C046BD4602B0B0BDC046BA
:103CF0004C17002000A905106C1700205517002054
:103D000070170020B0B58EB002AF644B1A688023E4
:103D10005B00134001D0FFF7DFFE604B1A68802381
:103D20009B00134003D00020FDF7F1FD02E00020CE
:103D3000FDF701FEFFF750FE594B1B78002B00D01A
:103D4000A7E0564B1A6880239B0013402AD0534BA0
:103D50001A6880235B01134024D1504B1A688023DA
:103D60001B0113404ED120217B184E4A31CA31C36A
:103D700012681A6079184C4B10221800FCF712FCDC
:103D80004A4B1B8898B24A4A474B009302230121B1
:103D900001F0CDFD414B1B68802212011A433F4BBD
:103DA0001A602FE03D4B1A6880239B00134029D0F6
:103DB0003A4B1A688023DB01134023D1374B1A6832
:103DC00080239B0113401DD110217B18394A31CA31
:103DD00031C312681A607918374B10221800FCF7AB
:103DE000E1FB324B1B8898B2314A334B00930223DC
:103DF000012101F09CFD294B1B68802292011A438E
:103E0000264B1A60254B1A6880239B00134040D034
:103E1000224B1A6880235B0113403AD01F4B1A686B
:103E20008023DB01134034D01C4B1A688023DB0055
:103E300013402ED10C23FB1801221A801F4B1A6845
:103E400013009B009B185B001A003B1D110018001B
:103E5000FCF714FB05E03B1D1800FCF720FB031EDC
:103E60000FD1124B1B8898B2154B1B88023399B2A5
:103E70000C23FB18022201F08DFD0300462BEAD033
:103E800000E0C046054B1B688022D2001A43034B5A
:103E90001A60C046BD460CB0B0BDC04660240020CC
:103EA000642400208CA80510D8230020601700206F
:103EB000FFFF00009CA80510E8230020ACA8051017
:103EC0006817002090B583B000AF0400080011000F
:103ED0003B60FB1D221C1A70BB1D021C1A707B1D4F
:103EE0000A1C1A70FB1D1B78022B19D10E4BDB78B4
:103EF000012B0CD10C4B0022DA700B4B00221A70F4
:103F0000094B00225A60084B08221A8208E0064B2F
:103F100000221A70044B00225A60034B10221A82AE
:103F2000C046BD4603B090BD4C170020B0B582B06E
:103F300000AF05000C0010001900FB1D2A1C1A70B0
:103F40003B1D221C1A80BB1D021C1A70FB1C0A1C84
:103F50001A70124B1B68124A1A40104B1A60114B10
:103F600000221A700F4B00225A700E4B00225A602A
:103F70000D4B3A1D12881A80084B1B688022920054
:103F80001A43064B1A60074B00221A82074BBA1DD0
:103F900012781A70C046BD4602B0B0BD6024002041
:103FA000FFFEFFFF4C170020601700206424002054
:103FB00090B583B000AF040008001100FB1D221C67
:103FC0001A703B1D021C1A80BB1D0A1C1A701B4B69
:103FD0001B681B4A1A40194B1A60184B1B68802239
:103FE00052001A43154B1A60144B1B68154A1A40AD
:103FF000124B1A60114B1B68134A1A400F4B1A6080
:104000000E4B1B68114A1A400C4B1A600B4B1B6875
:104010000F4A1A40094B1A60084B1B680D4A1A4098
:10402000064B1A60054B1B680B4A1A40034B1A607B
:10403000FFF708FCC046BD4603B090BD60240020D9
:10404000FFFDFFFFFFFBFFFFFFF7FFFFFFEFFFFF9E
:10405000FFDFFFFFFFBFFFFFFF7FFFFFF0B587B070
:1040600000AF02003960FB1D1A7017243B193A6833
:1040700012781A7016257B193A68127A1A7015266A
:10408000BB193A6852781A703B68991C0C23FB18CC
:1040900006221800FCF786FA174B9B78002B27D1D5
:1040A0003B191B78002B23D13B68DA687B191B78FE
:1040B00011001800FFF712FC031E19D00E4B01224D
:1040C0009A700D4B0122DA700B4B00221A700A4BCA
:1040D00000225A70084BBA1912781A720C23F91878
:1040E000064B06221800FCF75DFA034B20221A82C9
:1040F000C046BD4607B0F0BD4C1700205517002044
:1041000080B584B000AF3A60BB1D021C1A803B1D15
:104110000A1C1A80BB1D1A88454B1B8801339A4222
:1041200000D06EE0434B1B68002B47D03B681A78E9
:10413000414B1B789A4241D13B6801331A783E4B80
:104140005B789A423AD13D4B01221A60394B0022EA
:104150001A603B6804331B78F02B09D03B680433AA
:104160001B78F12B04D03B6804331B78F22B02D16F
:10417000334B01221A700323FB6019E0FB683A6895
:10418000D3181B78032B05D12A4B01221A602B4B25
:1041900000221A60294B1B68002B06D0FB683A6886
:1041A000D3181B781800FDF753FAFB680133FB6046
:1041B0003B1D1B88FA689A42E0DB35E00023BB60B8
:1041C00019E0BB683A68D3181B78032B05D1194B4B
:1041D00001221A60194B00221A60184B1B68002B31
:1041E00006D0BB683A68D3181B781800FDF730FA80
:1041F000BB680133BB603B1D1B88BA689A42E0DB99
:1042000012E0BB1D1A880F4B1B8802339A420BD158
:104210003B681B78012B07D10B4B1B688022D20017
:104220001A43094B1A60FFE7C046BD4604B080BD83
:10423000BC23002008250020C01700209023002068
:104240008C230020B823002060240020B0B582B069
:1042500000AF05000C0010001900BB1D2A1C1A80BD
:104260003B1D221C1A80BB1C021C1A803B000A1C2E
:104270001A80BA693B0019883B1D1B881800FFF79C
:104280003FFFC046BD4602B0B0BD000090B587B04C
:1042900000AF0400080011007B600E23FB18221CF5
:1042A0001A800C243B19021C1A800B23FB180A1CD1
:1042B0001A703B191A88144B1B8801339A421FD17C
:1042C0001723FB1800221A7011E017243B191B78E2
:1042D000DBB21A007B689B181B781800FDF7B8F951
:1042E0003B191B78DBB20133DAB23B191A70172382
:1042F000FB181B78DBB20B22BA1812789A42E4D86A
:10430000C046BD4607B090BD6817002090B585B087
:1043100000AF0400080011007B600E23FB18221C74
:104320001A800C243B19021C1A800B23FB180A1C50
:104330001A70134B1A6880231B0113400AD0104BCC
:104340001A6880235B01134004D10E4B3A1912887E
:104350001A8010E00A4B1A6880239B0113400AD090
:10436000074B1A688023DB01134004D1064B0C2253
:10437000BA1812881A80C046BD4605B090BDC04626
:1043800060240020681700206A17002080B582B0E2
:1043900000AF0200BB1D1A807B1D0A1C1A70154B52
:1043A0001A6880231B0113400DD0124B1A6880231A
:1043B0005B01134007D10F4B1B68802252011A4347
:1043C0000C4B1A6012E00B4B1A6880239B011340C0
:1043D0000CD0084B1A688023DB01134006D1054B33
:1043E0001B688022D2011A43024B1A60C046BD46A8
:1043F00002B080BD6024002080B582B000AF020012
:10440000BB1D1A803B1D0A1C1A80054B1B68054A00
:104410001A40034B1A60C046BD4602B080BDC0467C
:1044200060240020FF7FFFFF10B500F018F810BDDA
:1044300030B500240139A24201D1002005E0035D1E
:1044400001340D5DAB42F6D0581B30BD002310B5D2
:104450009A4200D110BDCC5CC4540133F8E710B5CA
:10446000884202D98B18984203D3002307E08B5C63
:104470008354013AFBD210BDCC5CC45401339A4240
:10448000FAD1F8E703008218934200D170471970FF
:104490000133F9E70FB40B4B13B51C68002C05D0A2
:1044A000A369002B02D1200000F0B8FB05AB20006F
:1044B000049AA168019300F09BFD16BC08BC04B0EF
:1044C0001847C0460C25002070B505000E000028D6
:1044D00004D08369002B01D100F0A0FBAB69AC686C
:1044E000002B02D1280000F099FB2D4B9C4222D1D9
:1044F0006C68636EDB0705D4A3899B0502D4A06DAD
:1045000000F02DFCA3891B0702D52369002B29D1BC
:104510002100280000F0DCF9002823D001256D429D
:10452000636EDB0705D4A3899B0502D4A06D00F060
:1045300017FC280070BD1B4B9C4201D1AC68D8E72A
:10454000194B9C42D5D1EC68D3E70136A360002B10
:1045500004DAA2699A4216DC0A2914D023685A1C8C
:1045600022601970A3683178013B0029EDD1A36066
:10457000002B0FDA280022000A3100F053F90A2537
:10458000431CCDD1CAE72200280000F04BF9431CA0
:10459000E8D1C3E70A2523685A1C22601D70BFE7D3
:1045A000A8A90510C8A9051088A9051010B5034BC6
:1045B00001001868FFF788FF10BDC0460C250020D9
:1045C000F0B51D005D4B85B01E6804000F00009221
:1045D000002E05D0B369002B02D1300000F01EFB85
:1045E000574B9C4261D17468009B022B05D0012B74
:1045F00000D99DE0002D00DA9AE0636EDB0705D458
:10460000A3899B0502D4A06D00F0A9FB2100300016
:1046100000F062FA616B002908D02300443399420C
:1046200002D0300000F014FC002363630023A36178
:104630006360A3891B0603D53000216900F008FCE4
:10464000A389404A1340A381009B022B00D169E05B
:1046500003AB2100300002AA00F084FBA3890343CE
:10466000A381002D2BD1029D280000F0E7FB071E3F
:1046700053D1029B0193AB4249D101256D420223E4
:10468000A289616E13430022A26022004732226099
:10469000226101221BB2A3816261114234D19B05C8
:1046A00032D4A06D00F05CFB2EE0274B9C4201D180
:1046B000B46899E7254B9C4296D1F46894E7002FA3
:1046C000D2D0B369002B02D1300000F0A7FA009BD2
:1046D000012B02D1A2891343A381A28908231100CF
:1046E00027602761656119401A421FD0D3071BD587
:1046F00000236D42A360A561616E01230D001D4082
:10470000194218D19305CCD5280005B0F0BD019809
:1047100000F094FB019D071EAFD08023A2891343B4
:10472000A381CEE70025AAE7A560E5E7A160E3E75E
:1047300001256D42E8E70025E6E7C0460C2500208C
:10474000A8A905105CF3FFFFC8A9051088A90510EA
:1047500030B50500101E0BD00024013A2B5D085D1A
:10476000834204D1944202D00134002BF6D1181AAE
:1047700030BD0000F8B5124B05001F680E00BC6D7F
:10478000002C16D1502000F059FBB865046044603D
:104790008460C4600461446184618462C4620463AF
:1047A00044638463C463046444648464C4640477B9
:1047B000446231002800BA6D012300F003F8F8BD0F
:1047C0000C250020F0B5002802D11068002813D075
:1047D000040020000E00057801343778002F04D142
:1047E000002D0FD12800156006E00136BD42F4D13E
:1047F000002BEED114600370F0BD2F000FE00133E9
:10480000002E04D1230001341D7827000B001E78F0
:10481000B542F4D1002DF0D00023013C2370176085
:10482000EAE70000F8B505000E001400002804D0E7
:104830008369002B01D100F0F1F9224B9C422ED16B
:104840006C68A369A360A3891B0732D52369002B79
:104850002FD023682269F7B2981A6369F6B28342AF
:1048600005DC2100280000F037F9002827D1A368D3
:104870000130013BA36023685A1C22601F706369EA
:10488000834204D0A389DB0707D50A2E05D1210076
:10489000280000F021F9002811D13000F8BD0A4BA2
:1048A0009C4201D1AC68CCE7084B9C42C9D1EC6872
:1048B000C7E72100280000F00BF80028C9D0012626
:1048C0007642EAE7A8A90510C8A9051088A905102D
:1048D000374B70B51D6806000C00002D05D0AB6984
:1048E000002B02D1280000F099F9324B9C420FD1E5
:1048F0006C680C23E25E93B211072DD4D90611D453
:1049000009230120336037331343A381404270BD34
:10491000294B9C4201D1AC68EBE7284B9C42E8D183
:10492000EC68E6E75B0713D5616B002908D023002C
:104930004433994202D0300000F08AFA00236363C6
:104940002422A3899343A381002363602369236006
:104950000823A2891343A3812369002B0BD1A02133
:104960008022A389890092000B40934203D021004A
:10497000300000F01FFA0C22A35E01201A0099B249
:10498000024003420FD00022A26062695242A2613B
:10499000002022698242BAD10A06B8D540221343C8
:1049A000A3810138B3E7880700D46269A260EFE70A
:1049B0000C250020A8A90510C8A9051088A9051074
:1049C000F7B58B8905000C001A075FD44A68002AE6
:1049D00004DC0A6C002A01DC0020FEBDE76A002F1F
:1049E000FAD0002280212E682A601A0049010A406C
:1049F0000B4234D0606DA3895B0706D56368C01A8B
:104A0000636B002B01D0236CC01A0200216A0023C3
:104A10002800E76AB847A189431C06D12B681D2BE3
:104A200031D82C4ADA40D3072DD50023636023699F
:104A30002360CB0405D5431C02D12B68002B00D189
:104A40006065616B2E600029C6D023004433994213
:104A500002D0280000F0FCF900206063BDE70123CC
:104A60002800216AB847431CC5D12B68002BC2D04F
:104A70001D2B01D0162B01D12E60ADE74023A2895A
:104A80001343A381A9E740230B43FAE70F69002FE3
:104A9000A2D00A680F60D21B019200229B0700D1AE
:104AA0004A69A260019B002B00DC95E73A002800D0
:104AB000019B216AA66AB047002806DC402301203A
:104AC000A28940421343A38187E7019B3F181B1A29
:104AD0000193E7E7010040200B6970B505000C0069
:104AE000002B02D10025280070BD002804D0836966
:104AF000002B01D100F092F8144B9C421BD16C6842
:104B00000C22A35E002BEDD0626ED20704D49B056D
:104B100002D4A06D00F023F928002100FFF750FF18
:104B2000636E0500DB07DED4A3899B05DBD4A06D93
:104B300000F016F9D7E7064B9C4201D1AC68DFE7DD
:104B4000044B9C42DCD1EC68DAE7C046A8A905100A
:104B5000C8A9051088A90510002310B5040003603A
:104B600043608360818143661900C28103614361B0
:104B7000836108225C30FFF785FC054B6362054BBF
:104B80002462A362044BE362044B236310BDC0465E
:104B90008D550410B5550410ED5504101956041028
:104BA00010B5024900F0BAF810BDC046D94A041049
:104BB00070B568254A1E55430E002900743100F077
:104BC00091F9041E08D000212A00016046600C30D3
:104BD000A0606832FFF756FC200070BD10B5024897
:104BE00000F0BDF810BDC0460424002010B50248F6
:104BF00000F0B6F810BDC0460424002010B50248ED
:104C000000F0ADF810BDC046FF23002010B50248EB
:104C100000F0A6F810BDC046FF23002013B5040025
:104C2000FFF7ECFFA369002B02D0FFF7EFFF13BDE6
:104C3000A364E3642365134B134A1B68A2620193C8
:104C4000A34201D10123A361200000F01FF860609E
:104C5000200000F01BF8A060200000F017F80022F0
:104C60000421E0606068FFF777FF01220921A06856
:104C7000FFF772FF02221221E068FFF76DFF0123A8
:104C8000A361D2E784A90510A14B0410F8B5070071
:104C9000FFF7A4FF1F4B1E68B369002B02D1300041
:104CA000FFF7BCFF4836B4687368013B04D533682E
:104CB000002B22D03668F6E70C22A55E002D1AD113
:104CC0002000154B5830E360656600F047F8FFF7A9
:104CD0008DFF2000082229002560A5606560256100
:104CE0006561A5615C30FFF7CDFB6563A563A564D5
:104CF000E5642000F8BD6834D7E704213800FFF7E9
:104D000057FF041E3060D5D1FFF770FF0C233B60C6
:104D1000EFE7C04684A905100100FFFFF7B50400C6
:104D200006000027019148346368A5680093009B42
:104D3000013B009304D52468002CF5D13800FEBD5A
:104D4000AB89012B08D90E22AB5E013304D02900B8
:104D50003000019B984707436835E8E77047704784
:104D60007047000070B50E001D000E23C95E1400D0
:104D700096B0002907DA00232B60B3891B0611D4F3
:104D80008023DB000FE06A4600F072FC0028F2DBB3
:104D9000F02301991B021940054BC9184B42594198
:104DA0002960EDE740230020236016B070BDC046A7
:104DB00000E0FFFFF7B502268B8905000C003342A7
:104DC00006D0230047332360236101236361F7BDCD
:104DD0006A4601ABFFF7C6FF00990700280000F004
:104DE00081F8002808D10C22A35E9A05EFD4032293
:104DF00093431E43A681E4E70F4BAB628023A28955
:104E000020601343A381009B20616361019B002B01
:104E10000DD028000E23E15E00F03CFC002806D0F7
:104E20000322A38993431A0001231343A381A0897A
:104E30000743A781CBE7C046A14B041010B5034B35
:104E40000100186800F04EF810BDC0460C25002087
:104E500070B50500002910D00C1F2368002B00DA64
:104E6000E418280000F048FC1D4A1368002B05D107
:104E700063601460280000F047FC70BDA34208D9AD
:104E8000216860188342F3D118685B68411821607B
:104E9000EEE71A005B68002B01D0A342F9D9116834
:104EA0005018A0420BD12068091850181160834295
:104EB000E0D118685B68411811605360DAE7A042DE
:104EC00002D90C232B60D5E721686018834203D1F7
:104ED00018685B684118216063605460CAE7C04687
:104EE00094230020F8B50323CD1C9D43083506000C
:104EF0000C2D1FD20C25A9421ED8300000F0FCFB5F
:104F000025490A681400002C1AD1244F3B68002B55
:104F100004D12100300000F027FB38602900300068
:104F200000F022FB431C2BD10C233000336000F037
:104F3000EBFB03E0002DDEDA0C2333600020F8BD2C
:104F400023685B1B19D40B2B03D92360E41825605D
:104F500003E06368A2420ED10B60300000F0D4FB86
:104F6000200007220B30231D9043C21A9842E6D03E
:104F70001B1AA350E3E75360EFE722006468C2E71F
:104F80000323C41C9C43A042E1D0211A300000F04E
:104F9000EBFA431CDBD1C7E79423002098230020C1
:104FA000936810B5013B9360002B04DA9469A34227
:104FB00007DB0A2905D01368581C10601970080017
:104FC00010BDFFF72FFC0100F9E7F8B506000F0050
:104FD0001400D518AC4201D1002007E021783A0036
:104FE0003000FFF7DDFF0134431CF3D1F8BD0000B2
:104FF000F0B5A1B006000C001F000392002804D0F9
:105000008369002B01D1FFF709FE8E4B9C421CD116
:105010007468636EDB0705D4A3899B0502D4A06D79
:10502000FFF79DFEA3891B0702D52369002B1DD125
:1050300021003000FFF74CFC002817D0636EDB071F
:105040000DD50120404221B0F0BD7F4B9C4201D1E3
:10505000B468DEE77D4B9C42DBD1F468D9E7A389D5
:105060009B05EED4A06DFFF77BFEEAE7002308ADB9
:105070006B6120336B761033AB760797039F3B78D9
:10508000002B01D0252B4ED1039BFB1A0593039BCC
:105090009F420DD0059B21003000039AFFF795FF3A
:1050A000431C00D1B5E06A69059B944663446B617B
:1050B0003B78002B00D1ACE001227B1C0393002342
:1050C00052426A6004A9543252182B60EB60AB6004
:1050D0001370AB65039B052219785D4800F000FB57
:1050E000039B5F1C002820D12A68D30604D55323D4
:1050F00004A95B1820211970130704D5532304A9B0
:105100005B182B211970039B1B782A2B16D00021CA
:10511000EB68039F3A78781C303A8446092A4FD9C5
:10512000002911D117E00137A9E7494B2A68C01AB5
:105130000123834013432B600397CBE7079B191D83
:105140001B680791002B01DB0B9304E05B42EB60D3
:10515000022313432B603B782E2B0AD17B782A2B1A
:1051600037D1079B02371A1D1B680792002B2DDBD6
:10517000099303223978374800F0B2FA002807D0A3
:10518000344B2A68C01A40238340134301372B60F5
:1051900039787B1C062230480393297600F0A0FA68
:1051A000002845D02D4B002B27D10722079B073322
:1051B0009343083307936B69049A9B186B615DE70F
:1051C0000A214B4367469B180939A3E701235B4239
:1051D000CEE700231A0001376B603978781C30392C
:1051E0008446092903D9002BC3D00992C1E70A23B9
:1051F0005A4367465218093BEFE707AB009322007A
:1052000029003000164B00E000BF0490049B0133DE
:10521000D1D1636EDB0705D4A3899B0502D4A06DB1
:10522000FFF79EFDA3895B0600D50AE70D980AE704
:1052300007AB0093220029003000094B00F082F8F0
:10524000E3E7C046A8A90510C8A9051088A905105C
:10525000E8A90510EEA90510F2A90510000000004C
:10526000CB4F0410F7B5150001938A680B690C0049
:105270000090934200DA130022002B604332127830
:10528000002A01D001332B6023689B0602D52B68CE
:1052900002332B602268062317001F401A4227D0D2
:1052A000230043331B785A1E93412268920630D460
:1052B000220001990098089E4332B047431C25D034
:1052C000062320682A68E16800250340042B03D1E7
:1052D0008D1AEB43DB171D40A3682269934201DD61
:1052E0009B1AED180027BD4220D1002010E00137A5
:1052F000E3682A689B1ABB42D2DD22000123019990
:105300000098089E1932B047431CF0D1012040425A
:10531000FEBD3020E1184331087021005A1C453190
:105320000978A218433202331170C1E72200012329
:1053300001990098089E1A32B047431CE6D0013705
:10534000D1E70000F0B58BB006920A004332079314
:10535000059004920A7E0C00109B782A06D8622AD7
:1053600008D8002A00D1C0E0582A52D02600423680
:10537000327022E0100063381528F7D8FAF7F8FEEB
:1053800016001F00F6FFF6FFF6FFF6FF1F00F6FF00
:10539000F6FFF6FFF6FFA80036009A00F6FFF6FFCC
:1053A000B900F6FF3600F6FFF6FF9E0026001A68E9
:1053B0004236111D1960136833700123A7E0086895
:1053C00019680A1D05060BD50D681A60002D03DA51
:1053D0002D23049A6D421370614B0A27039332E028
:1053E0000D681A604106F1D52DB2EFE70D68196816
:1053F000081D18602E0601D50D6803E06D06FBD56B
:105400000D68ADB2564B0A2703936F2A17D10827B0
:1054100015E045310A70524A03921A68216820CA81
:105420001A60080650D5CB0702D520231943216006
:105430001027002D03D1202322689A4322602300E5
:10544000002243331A706368A360002B03DB04223D
:10545000216891432160002D02D1049E002B0CD0C5
:10546000049E28003900FAF713FF039B013E5B5CA2
:1054700033702B0005009F42F3D9082F09D1236810
:10548000DB0706D563682269934202DC3023013EC4
:105490003370049B9B1B2361079B2100009305989D
:1054A000069B09AAFFF7DEFE431C35D101204042CE
:1054B0000BB0F0BD202209680A4322602200782147
:1054C00045321170274AA7E74806ACD5ADB2AAE726
:1054D0001A680D68101D4969186013682E0601D5F9
:1054E000196002E06D06FBD519800023049E23613C
:1054F000D2E71A68111D1960166800213000626831
:1055000000F0EEF8002801D0801B60606368236122
:105510000023049A1370BFE72369320006990598A7
:10552000079DA847431CC1D023689B0715D4099B3E
:10553000E0689842BCDA1800BAE722000123069915
:105540000598079E1932B047431CAFD00135E36878
:10555000099A9B1AAB42F0DCE9E70025F7E7C04661
:10556000F9A905100AAA0510002370B5064D04001C
:1055700008002B60FCF77AF8431C03D12B68002B42
:1055800000D0236070BDC046F823002070B50C0029
:105590000E25495F00F0C0F8002803DB636D1B187F
:1055A000636570BDA389024A1340A381F9E7C04631
:1055B000FFEFFFFFF8B51F008B8905000C001600F8
:1055C000DB0505D50E23C95E0022022300F074F826
:1055D000A389054A28001340A38132000E23E15E0F
:1055E0003B0000F01FF8F8BDFFEFFFFF70B50C00A7
:1055F0000E25495F00F060F8A389421C03D1054ADB
:105600001340A38170BD802252011343A3816065C2
:10561000F8E7C046FFEFFFFF10B50E23C95E00F0AC
:1056200015F810BD70B50400080011001A00002321
:10563000054D2B60FCF774F8431C03D12B68002B3D
:1056400000D0236070BDC046F8230020002370B551
:10565000064D040008002B60FCF736F8431C03D10C
:105660002B68002B00D0236070BDC046F8230020BB
:10567000002370B5064D0400080011002B60FCF7F4
:105680002DF8431C03D12B68002B00D0236070BD84
:10569000F8230020002370B5064D040008002B609D
:1056A000FCF72AF8431C03D12B68002B00D02360A1
:1056B00070BDC046F823002070B50400080011003A
:1056C0001A000023054D2B60FCF71FF8431C03D183
:1056D0002B68002B00D0236070BDC046F82300204B
:1056E000C9B28218904201D10020704703788B42E2
:1056F000FBD00130F6E7000010B50248FFF72FFBA2
:1057000010BDC0460024002010B50248FFF728FB5A
:1057100010BDC0460024002070B504000800110030
:105720001A000023054D2B60FCF716F8431C03D12B
:105730002B68002B00D0236070BDC046F8230020EA
:10574000F0B5054600200F46079E059C174309D07B
:10575000202905D30127BF03BA4201D8914201D9BC
:105760004220F0BD194621430AD09C42F8D3094992
:105770008C4203D00849A41F8C42F1D2062BEFD3F0
:10578000002D03D0022D01D0032DE9D1032EE7D83F
:10579000F0BD0000FFFF00007B0C0000FFB58DB0E6
:1057A000144618AAECCA04976F466CC70A4601460D
:1057B00005A8179B04F02CF900280AD108A8447109
:1057C000012C08D0002C06D0022C04D0032C02D0CF
:1057D000422011B0F0BD09A8062202301099FAF754
:1057E000E1FE08A916980873C0B20328F0D805A8EE
:1057F00000F010FBEDE77CB5069D079C002805D066
:10580000860705D1460703D4060701D442207CBD94
:10581000002903D0012901D00229F7D10095019474
:1058200000F04EFB7CBDFFB587B0109D159E169C09
:1058300001930295009407A807C81F463346FFF757
:105840007FFF00280ED11398149903AA069443C22F
:105850001198129901900095029107A807C83B463C
:1058600000F0BEFC0BB0F0BD10B500F0D5FC04009C
:1058700002D101200BF0A4FB204610BD10B500F0B2
:10588000E1FC10BD10B50BF02BFC10BD10B500F005
:1058900013FD10BD70B51C4613460D46012C03D0F8
:1058A000022C03D0422070BD022200E010221946D3
:1058B000FAF778FE2C70002070BDF0B587B01C465A
:1058C0000B46054600A9023101A80C9F0D9EFFF76B
:1058D000E1FF00280ED16846058084828775C67571
:1058E0000E9901760F994176109981766946119843
:1058F00002F09AF807B0F0BD70B586B014461D46A8
:105900000A4603466946881C0A9EFFF7C3FF002823
:1059100004D1012C04D0022C02D0422006B070BD6C
:1059200023462A466946304602F0C8FAF6E770B5C3
:1059300086B00D46144606466946881C0A9AFFF74B
:10594000A9FF002805D16B4622462946304600F0C3
:10595000C1FF06B070BD10B502F038FD10BD38B5FE
:105960006D46049C2A806B8023466A4602F0E4FF61
:1059700038BDF0B585B084460AA8F0C86846858170
:10598000C68103A8019002970094604603F008F8CE
:1059900005B0F0BD10B501F0C6FA10BD10B503F0AA
:1059A0004DFD10BD10B503F06BFD10BD10B504F03A
:1059B0005FF91D4C4121206849014118097F0029E8
:1059C0000DD1A0300079C00705D100F0E9FB02F04D
:1059D00095FB0EF08FF803F087FE11F017F900F039
:1059E00001F92068014640310A78C9798A4319D102
:1059F0003E21095C002915D10C490A88120711D5EE
:105A00000922D2061269497A836AC90059181123FA
:105A1000DB01C018806A801A00020012814201DA9C
:105A20000DF082F810BD000054240020C0000020BA
:105A300010B5837F0122002492024168082B03D90C
:105A40004224914202D310E0914201D242240CE060
:105A5000014634220648FAF7A5FD00F083F8002835
:105A600001DA482401E000F02DF9204610BD0000C5
:105A7000DC0200203EB5174D15482968827F084694
:105A8000A0310A7300246030047644768476E122E3
:105A9000C2768022027702224277302008704C7052
:105AA00002AA01A96846FAF761FD68460078A222B9
:105AB00001016846007A891C0002014368460079AA
:105AC0000003014328681152A03004713EBD00005C
:105AD000DC0200205424002070B504F0AFF80CF074
